:020000040800F2
:10000000002800201D150008911200089712000812
:100010009D120008A3120008A912000800000000A9
:10002000000000000000000000000000AF12000807
:10003000BB12000800000000C7120008D31200081D
:1000400065150008651500086515000865150008A8
:100050006515000865150008651500086515000898
:100060006515000865150008651500086515000888
:100070006515000865150008651500086515000878
:100080006515000865150008651500086515000868
:100090006515000865150008651500086515000858
:1000A0006515000865150008651500086515000848
:1000B000E112000865150008000000006515000841
:1000C000651500080000000000000000651500082C
:1000D000000000006515000865150008000000001C
:1000E000651500086515000865150008000000008A
:1000F0000000000000000000000000000000000000
:0C01000000000000000000005FF808F1A3
:10010C0010B5054C237833B9044B13B10448AFF345
:10011C0000800123237010BD8C0000200000000023
:10012C00942B000808B5034B1BB103490348AFF3EC
:10013C00008008BD0000000090000020942B0008F7
:10014C0080B483B000AF7860094A7B6852F82330E2
:10015C00012B06D1064A7B68002142F823100123AB
:10016C0000E0002318460C37BD4680BC704700BF2A
:10017C00A800002080B483B000AF7860044A7B688C
:10018C00012142F8231000BF0C37BD4680BC7047DC
:10019C00A800002080B582B000AF01237B6077E01F
:1001AC003F4A7B6852F823203E497B6841F8232064
:1001BC003D4A7B6852F8232039497B6841F823205B
:1001CC007B68012B08D14FF40071384801F0B0FC6A
:1001DC0003461A46344B5A607B68022B08D14FF405
:1001EC008061324801F0A4FC03461A462E4B9A60FB
:1001FC007B68032B08D14FF400612C4801F098FC6C
:10020C0003461A46284BDA60264A7B6852F82320AC
:10021C0023497B6851F823309A4236D1204A7B68B7
:10022C0052F8232020497B6851F823309A422CD174
:10023C001F4A7B6852F823201B497B6851F82330F6
:10024C009A4214D0184A7B6852F8232018497B68CC
:10025C0041F82320144A7B6852F82330002B14D128
:10026C007868FFF787FF134BC8221A600DE0114B1B
:10027C001B68013B0F4A13600E4B1B68002B04D10B
:10028C000B4A7B68012142F823107B6801337B60A9
:10029C007B68032B84DD00BF00BF0837BD4680BDE3
:1002AC001000002000000020200000200008014069
:1002BC00300000204000002080B500AFA04B1B6830
:1002CC00013B032B00F2238101A252F823F000BF63
:1002DC00ED02000833030008D70300087904000876
:1002EC00974B02221A60974B1B68013B964A13608E
:1002FC0000F0B4FD954B00221A60954B1B68194613
:10030C00012000F019FF8F4B1B684FF47A7202FB2F
:10031C0003F31946002000F00FFF40F2E2410220E7
:10032C0000F00AFFFAE08B4B5B68012B18D101F04F
:10033C0047F8864B1B68184600F048FD834B1B683A
:10034C000133824A1360814B1B68012B02DD7F4B0A
:10035C0000221A607E4B1B681946012000F0ECFE4F
:10036C007C4B1B68012B12D1754B03221A607A4B04
:10037C001B68754A136000F071FD774B1B684FF4D6
:10038C007A7202FB03F31946002000F0D5FE714B84
:10039C009B68012B0BD16C4B1B68013B6A4A1360A9
:1003AC0000F05CFD4FF47A71022000F0C5FE0120D4
:1003BC00FFF7C6FE0346012B40F0AB80604B1422C6
:1003CC001A60664B14221A60A3E0624B5B68012B27
:1003DC0018D101F00BF85D4B1B68184600F0F6FCC9
:1003EC005A4B1B680133594A1360584B1B68012B3D
:1003FC0002DD564B00221A60554B1B681946012032
:10040C0000F09AFE534B1B68012B12D14C4B04226B
:10041C001A60534B1B684C4A136000F01FFD504B85
:10042C001B684FF47A7202FB03F31946002000F0AC
:10043C0083FE484B9B68012B0BD1434B1B68013B44
:10044C00414A136000F00AFD4FF47A71022000F06B
:10045C0073FE0120FFF774FE0346012B5BD1384B72
:10046C0014221A603D4B14221A6054E0394B5B681D
:10047C00012B18D100F0D0FF344B1B68184600F04C
:10048C00A5FC324B1B680133304A13602F4B1B68A1
:10049C00012B02DD2D4B00221A602D4B1B681946D7
:1004AC00012000F049FE2B4B1B68012B12D1244B71
:1004BC0002221A60234B1B68234A136000F0CEFC07
:1004CC00204B1B684FF47A7202FB03F31946002091
:1004DC0000F032FE1F4B9B68012B0BD11A4B1B6893
:1004EC00013B194A136000F0B9FC4FF47A710220F9
:1004FC0000F022FE0120FFF723FE0346012B0CD156
:10050C000F4B14221A60154B14221A6005E000BF21
:10051C0004E000BF02E000BF00E000BF0F4B1B680F
:10052C00013B032B00F22F8101A252F823F000BFF4
:10053C0071050008B705000857060008F506000805
:10054C00440000204C00002068000020C400002063
:10055C0070000020F4000020500000204800002013
:10056C00540000208C4B03221A608C4B1B68013BFF
:10057C008B4A136000F098FC8A4B00221A608A4B5D
:10058C001B681946042000F0D7FD844B1B684FF400
:10059C007A7202FB03F31946032000F0CDFD40F202
:1005AC001451052000F0C8FDF4E0804B1B69012BB1
:1005BC0016D100F0C3FE7B4B1B685A1C79490A60AC
:1005CC00184600F027FC774B1B68012B02DD754B9E
:1005DC0000221A60744B1B681946042000F0ACFD15
:1005EC00724BDB68012B12D16B4B03221A606B4BE5
:1005FC001B686B4A136000F057FC684B1B684FF488
:10060C007A7202FB03F31946032000F095FD674B49
:10061C005B69012B0BD1624B1B68013B604A136079
:10062C0000F042FC4FF47A71052000F085FD0120AA
:10063C00FFF786FD0346012B40F0A780564B142292
:10064C001A605B4B14221A609FE0584B1B69012BFC
:10065C0016D100F089FE534B1B685A1C51490A6095
:10066C00184600F0D7FB4F4B1B68012B02DD4D4B9E
:10067C0000221A604C4B1B681946042000F05CFDEC
:10068C004A4BDB68012B12D1434B04221A60494BB5
:10069C001B68434A136000F007FC464B1B684FF481
:1006AC007A7202FB03F31946032000F045FD3F4B21
:1006BC005B69012B0BD13A4B1B68013B384A136029
:1006CC0000F0F2FB4FF47A71052000F035FD0120AB
:1006DC00FFF736FD0346012B59D12F4B14221A601C
:1006EC00334B14221A6052E0304B1B69012B16D18C
:1006FC0000F050FE2B4B1B685A1C2A490A60184606
:10070C0000F088FB274B1B68012B02DD254B0022D8
:10071C001A60254B1B681946042000F00DFD234B75
:10072C00DB68012B12D11C4B02221A60224B1B6876
:10073C001B4A136000F0B8FB1F4B1B684FF47A7216
:10074C0002FB03F31946032000F0F6FC174B5B6920
:10075C00012B0BD1124B1B68013B114A136000F0AB
:10076C00A3FB4FF47A71052000F0E6FC0120FFF7A3
:10077C00E7FC0346012B0CD1074B14221A600C4BDF
:10078C0014221A6005E000BF04E000BF02E000BFC5
:10079C0000E000BF00BF80BD4800002050000020DA
:1007AC006C000020C800002070000020F400002025
:1007BC0044000020540000204C00002080B500AF05
:1007CC00924B1B68143B042B00F29D8101A252F842
:1007DC0023F000BFF50700081F0800086508000893
:1007EC00430900083D0A0008884B16221A6000F0E5
:1007FC00BDF942F21071012000F09EFCFA2102209A
:10080C0000F09AFCFA21032000F096FC00F090F91D
:10081C0080E17F4B1B68012B05D17C4B01221A60B8
:10082C007C4B01221A600120FFF78AFC0346012B46
:10083C000FD1764B16221A6042F21071012000F093
:10084C007BFCFA21022000F077FCFA21032000F057
:10085C0073FC00F06DF95DE1002000F075FA0220E8
:10086C0000F08CF96C4B1B686C4A136000F0F6FAC4
:10087C00674BDB68012B12D1694B1B685A1C68490A
:10088C000A60184600F0A2FA654B1B68012B02DDCA
:10089C00634B00221A60FA21032000F04DFC5C4BE4
:1008AC009B68012B05D100F0CDFDFA21022000F050
:1008BC0043FC0120FFF744FC0346012B07D1534BAB
:1008CC0017221A6042F21071012000F035FC022050
:1008DC00FFF736FC0346012B10D14F4B1B6801333D
:1008EC004D4A13604C4B1B68632B02DD4A4B0022B4
:1008FC001A6042F21071012000F01EFC0320FFF779
:10090C001FFC0346012B0DD1434B1B68454A13605A
:10091C003E4B15221A6000F029F94FF47A71002031
:10092C0000F00AFC3A4B5B68012B40F0EE80374B31
:10093C0015221A60E9E0002000F006FA032000F00E
:10094C001DF9394B1B68354A136000F087FA304BA0
:10095C00DB68012B12D1324B1B685A1C30490A60E0
:10096C00184600F033FA2E4B1B68012B02DD2C4B82
:10097C0000221A60FA21032000F0DEFB244B9B6856
:10098C00012B05D100F080FDFA21022000F0D4FBF0
:10099C000120FFF7D5FB0346012B07D11B4B182277
:1009AC001A6042F21071012000F0C6FB0220FFF722
:1009BC00C7FB0346012B0BD11B4B1B6801331A4A97
:1009CC001360194B1B68632B02DD174B00221A6056
:1009DC000320FFF7B5FB0346012B0DD1124B1B680F
:1009EC00124A1360094B15221A6000F0BFF84FF43D
:1009FC007A71002000F0A0FB054B5B68012B40F0E6
:100A0C008680024B15221A6081E000BF4400002052
:100A1C00F400002048000020B800002068000020EE
:100A2C00C40000204C000020BC000020500000201E
:100A3C00002000F089F9042000F0A0F8364B1B6868
:100A4C00364A136000F00AFA354BDB68012B12D1E1
:100A5C00344B1B685A1C33490A60184600F0B6F92F
:100A6C00304B1B68012B02DD2E4B00221A60FA2141
:100A7C00032000F061FB2A4B9B68012B05D100F091
:100A8C0025FDFA21022000F057FB0120FFF758FB4F
:100A9C000346012B09D1244B15221A6000F066F88D
:100AAC004FF47A71002000F047FB0220FFF748FB5F
:100ABC000346012B0BD1184B1B680133164A1360EC
:100ACC00154B1B68632B02DD134B00221A600320AD
:100ADC00FFF736FB0346012B0DD10F4B1B68134A56
:100AEC001360114B15221A6000F040F84FF47A7124
:100AFC00002000F021FB0A4B5B68012B09D10A4B4B
:100B0C0015221A6005E000BF04E000BF02E000BF40
:100B1C0000E000BF00BF80BDC000002068000020C6
:100B2C00F4000020C40000204400002054000020E9
:100B3C0080B400AF074B1B68074A1360074B1B6858
:100B4C00074A1360074B1B68074A136000BFBD467A
:100B5C0080BC70474C000020B800002050000020E2
:100B6C00BC00002054000020C000002080B500AF65
:100B7C0000F012F900F0BEFB00BF80BD80B584B060
:100B8C0000AF7860294A7B6813441B78FB73FB7BAE
:100B9C0003F00103DBB21A460121254800F0DFFF08
:100BAC00FB7B5B10DBB203F00103DBB21A460221C4
:100BBC001F4800F0D4FFFB7B9B10DBB203F001035A
:100BCC00DBB21A4604211A4800F0C9FFFB7BDB108C
:100BDC00DBB203F00103DBB21A460821144800F023
:100BEC00BEFFFB7B1B11DBB203F00103DBB21A4629
:100BFC0010210F4800F0B3FFFB7B5B11DBB203F05D
:100C0C000103DBB21A462021094800F0A8FFFB7B48
:100C1C009B11DBB203F00103DBB21A4640210448FE
:100C2C0000F09DFF00BF1037BD4680BD7400002052
:100C3C00000C014080B584B000AF78602C4A7B6812
:100C4C0013441B78FB73FB7B03F00103DBB21A46E6
:100C5C008021284800F083FFFB7B5B10DBB203F0A4
:100C6C000103DBB21A464FF48071224800F077FF83
:100C7C00FB7B9B10DBB203F00103DBB21A464FF493
:100C8C0000711C4800F06BFFFB7BDB10DBB203F048
:100C9C000103DBB21A464FF48061164800F05FFF87
:100CAC00FB7B1B11DBB203F00103DBB21A464FF4E2
:100CBC000061104800F053FFFB7B5B11DBB203F0CB
:100CCC000103DBB21A464FF480510A4800F047FF8B
:100CDC00FB7B9B11DBB203F00103DBB21A464FF432
:100CEC000051044800F03BFF00BF1037BD4680BDEB
:100CFC0074000020000C014080B582B000AF786019
:100D0C007B68002B0BD100224FF480410D4800F082
:100D1C0026FF01224FF400410A4800F020FF7B68B7
:100D2C00012B0BD100224FF40041064800F017FFB5
:100D3C0001224FF48041034800F011FF00BF083737
:100D4C00BD4680BD0008014080B582B000AF786020
:100D5C007B68002B0BD100224FF480510D4800F022
:100D6C00FEFE01224FF400510A4800F0F8FE7B68A9
:100D7C00012B0BD100224FF40051064800F0EFFE7E
:100D8C0001224FF48051034800F0E9FE00BF083700
:100D9C00BD4680BD0008014080B500AF01224FF474
:100DAC007041084800F0DBFE01227F21064800F06C
:100DBC00D6FE01224FF47E51034800F0D0FE00BF56
:100DCC0080BD00BF00080140000C014080B582B01E
:100DDC0000AF78607B68002B03D07B68012B09D0B7
:100DEC0011E00020FFF788FF094B1B681846FFF73E
:100DFC0021FF08E00120FFF77FFF054B5B681846D9
:100E0C00FFF718FF00BF00BF0837BD4680BD00BF0D
:100E1C005800002080B582B000AF78607B68002B52
:100E2C0003D07B68012B09D011E00020FFF78CFF69
:100E3C00094B1B681846FFF7A1FE08E00120FFF7DD
:100E4C0083FF054B5B681846FFF798FE00BF00BF99
:100E5C000837BD4680BD00BF6000002080B400AFE5
:100E6C000E4B1B680E4A82FB03129210DB17D31A2F
:100E7C000C4A1360094B1968094B83FB01239A1028
:100E8C00CB17D21A13469B0013445B00CA1A054BAE
:100E9C005A6000BFBD4680BC704700BF6800002090
:100EAC00676666665800002080B400AF0E4B1B6866
:100EBC000E4A82FB03129210DB17D31A0C4A1360F2
:100ECC00094B1968094B83FB01239A10CB17D21AD3
:100EDC0013469B0013445B00CA1A054B5A6000BFB3
:100EEC00BD4680BC704700BF6C000020676666661C
:100EFC006000002080B500AF00F030FB00F012F86D
:100F0C0000F04CF800F096F8054801F085FA00F076
:100F1C00F1F9FFF741FFFFF7CFF9FFF74FFCFAE7C5
:100F2C001C01002080B590B000AF07F118032822F7
:100F3C000021184601F020FE3B1D00221A605A6069
:100F4C009A60DA601A610223BB610123BB62102331
:100F5C00FB6200237B6307F11803184600F030FE98
:100F6C000346002B01D000F0E1F80F237B60002337
:100F7C00BB600023FB6000233B6100237B613B1DB6
:100F8C000021184601F09CF80346002B01D000F01C
:100F9C00CDF800BF4037BD4680BD000080B586B09F
:100FAC0000AF07F1080300221A605A609A60DA60F9
:100FBC003B4600221A605A601D4B4FF080421A606B
:100FCC001B4B41F63F725A60194B00229A60184B2A
:100FDC000922DA60164B00221A61154B00229A6125
:100FEC00134801F0C9F90346002B01D000F09EF81C
:100FFC004FF48053BB6007F1080319460C4801F00D
:10100C0047FB0346002B01D000F090F800233B6017
:10101C0000237B603B461946054801F01FFD034643
:10102C00002B01D000F082F800BF1837BD4680BD00
:10103C001C01002080B588B000AF07F1100300221E
:10104C001A605A609A60DA602F4B9B692E4A43F003
:10105C00200393612C4B9B6903F02003FB60FB681E
:10106C00294B9B69284A43F004039361264B9B69E7
:10107C0003F00403BB60BB68234B9B69224A43F01B
:10108C0008039361204B9B6903F008037B607B682A
:10109C0000224FF2FC011D4800F061FD002243F6D6
:1010AC00FF711B4800F05BFD4FF2FC033B61012319
:1010BC007B610023BB610223FB6107F1100319461E
:1010CC00124800F0BBFB43F6FF733B6101237B61CD
:1010DC000023BB610223FB6107F1100319460C4886
:1010EC0000F0ACFB4FF460633B6100237B61012398
:1010FC00BB6107F110031946044800F09FFB00BFC9
:10110C002037BD4680BD00BF0010024000080140E2
:10111C00000C014080B582B000AF786000F02CF874
:10112C00FFF738F800BF0837BD4680BD80B400AF6C
:10113C0072B600BFFEE7000080B483B000AF7860E9
:10114C0039603B68094A82FB03129210DB17D21AF2
:10115C0007497B6841F82320064A7B68002142F846
:10116C00231000BF0C37BD4680BC704767666666AF
:10117C00CC000020F400002080B483B000AF00232A
:10118C007B601CE0124A7B6852F82330002B13DD85
:10119C000F4A7B6852F823305A1E0D497B6841F880
:1011AC0023200B4A7B6852F82330002B04DC094ABD
:1011BC007B68012142F823107B6801337B607B68DC
:1011CC00062BDFDD00BF00BF0C37BD4680BC70476F
:1011DC00CC000020F400002080B485B000AF154B8B
:1011EC009B69144A43F001039361124B9B6903F012
:1011FC000103BB60BB680F4BDB690E4A43F08053A5
:10120C00D3610C4BDB6903F080537B607B680A4B2A
:10121C005B68FB60FB6823F0E063FB60FB6843F0FA
:10122C008063FB60044AFB68536000BF1437BD4603
:10123C0080BC7047001002400000014080B584B0B3
:10124C0000AF78607B681B68B3F1804F13D10C4BF7
:10125C00DB690B4A43F00103D361094BDB6903F0F3
:10126C000103FB60FB68002200211C2000F0AFFA98
:10127C001C2000F0C8FA00BF1037BD4680BD00BF6F
:10128C000010024080B400AFFEE780B400AFFEE770
:10129C0080B400AFFEE780B400AFFEE780B400AFCF
:1012AC00FEE780B400AF00BFBD4680BC704780B481
:1012BC0000AF00BFBD4680BC704780B400AF00BF1C
:1012CC00BD4680BC704780B500AF00F08DF900BF03
:1012DC0080BD000080B500AF024801F0E9F800BF06
:1012EC0080BD00BF1C01002080B400AF00BFBD4614
:1012FC0080BC704780B500AF012204210E4800F07D
:10130C002EFC012208210C4800F029FC012210219E
:10131C00094800F024FC01222021074800F01FFCA2
:10132C0001224021044800F01AFC012280210248CD
:10133C0000F015FC00BF80BD0008014080B500AF77
:10134C0000220421074800F00AFC0122082105486C
:10135C0000F005FC01221021024800F000FC00BF47
:10136C0080BD00BF0008014080B500AF0122042100
:10137C00074800F0F4FB00220821054800F0EFFBC1
:10138C0001221021024800F0EAFB00BF80BD00BF23
:10139C000008014080B500AF01220421074800F08D
:1013AC00DEFB01220821054800F0D9FB00221021A8
:1013BC00024800F0D4FB00BF80BD00BF0008014014
:1013CC0080B500AF00222021074800F0C8FB0122A5
:1013DC004021054800F0C3FB01228021024800F0A7
:1013EC00BEFB00BF80BD00BF0008014080B500AF50
:1013FC0001222021074800F0B2FB002240210548C1
:10140C0000F0ADFB01228021024800F0A8FB00BFD8
:10141C0080BD00BF0008014080B500AF0122202133
:10142C00074800F09CFB01224021054800F097FB87
:10143C0000228021024800F092FB00BF80BD00BF5B
:10144C000008014080B500AF012208210D4800F0D2
:10145C0086FB012240210B4800F081FB0122102168
:10146C00084800F07CFB01228021064800F077FB45
:10147C000421044800F08BFB2021024800F087FB7C
:10148C0000BF80BD0008014080B500AF01220421DF
:10149C000D4800F064FB012220210B4800F05FFB9B
:1014AC0001221021084800F05AFB01228021064835
:1014BC0000F055FB0821044800F069FB402102486C
:1014CC0000F065FB00BF80BD0008014080B500AF97
:1014DC00012208210D4800F042FB012240210B485B
:1014EC0000F03DFB01220421084800F038FB0122EA
:1014FC002021064800F033FB1021044800F047FB84
:10150C008021024800F043FB00BF80BD0008014071
:10151C00FFF7EAFE0B480C490C4A002302E0D458B2
:10152C00C4500433C4188C42F9D3094A094C002323
:10153C0001E013600432A242FBD301F0F9FAFFF789
:10154C00D9FC7047000000208C000020D82B00082C
:10155C008C00002068010020FEE7000080B500AF81
:10156C00084B1B68074A43F010031360032000F07C
:10157C0023F90F2000F008F8FFF72EFE0023184681
:10158C0080BD00BF0020024080B582B000AF786003
:10159C00124B1A68124B1B7819464FF47A73B3FB33
:1015AC00F1F3B2FBF3F3184600F03BF90346002BC2
:1015BC0001D001230EE07B680F2B0AD8002279683A
:1015CC004FF0FF3000F003F9064A7B6813600023EC
:1015DC0000E0012318460837BD4680BD800000207E
:1015EC00880000208400002080B400AF054B1B78DD
:1015FC001A46054B1B681344034A136000BFBD46D3
:10160C0080BC7047880000206401002080B400AFCB
:10161C00024B1B681846BD4680BC70476401002015
:10162C0080B485B000AF78607B6803F00703FB6083
:10163C000C4BDB68BB60BA684FF6FF031340BB6012
:10164C00FB681A02BB68134343F0BF6343F40033D7
:10165C00BB60044ABB68D36000BF1437BD4680BC76
:10166C00704700BF00ED00E080B400AF044BDB68B6
:10167C001B0A03F007031846BD4680BC704700BF29
:10168C0000ED00E080B483B000AF0346FB7197F926
:10169C000730002B0BDBFB7903F01F02064997F98F
:1016AC0007305B09012000FA02F241F8232000BF49
:1016BC000C37BD4680BC704700E100E080B483B0BD
:1016CC0000AF03463960FB7197F90730002B0ADB3A
:1016DC003B68DAB20C4997F907301201D2B20B44CD
:1016EC0083F800230AE03B68DAB20849FB7903F07F
:1016FC000F03043B1201D2B20B441A7600BF0C3715
:10170C00BD4680BC704700BF00E100E000ED00E08A
:10171C0080B489B000AFF860B9607A60FB6803F000
:10172C000703FB61FB69C3F10703042B28BF0423E8
:10173C00BB61FB690433062B02D9FB69033B00E058
:10174C0000237B614FF0FF32BB6902FA03F3DA43EB
:10175C00BB681A407B699A404FF0FF317B6901FAF4
:10176C0003F3D9437B680B40134318462437BD461B
:10177C0080BC704780B582B000AF78607B68013B5D
:10178C00B3F1807F01D301230FE00A4A7B68013B50
:10179C0053600F214FF0FF30FFF790FF054B0022F5
:1017AC009A60044B07221A60002318460837BD467E
:1017BC0080BD00BF10E000E080B582B000AF786063
:1017CC007868FFF72DFF00BF0837BD4680BD80B598
:1017DC0086B000AF0346B9607A60FB7300237B616F
:1017EC00FFF742FF78617A68B9687869FFF790FF74
:1017FC00024697F90F3011461846FFF75FFF00BFFE
:10180C001837BD4680BD80B582B000AF0346FB7172
:10181C0097F907301846FFF735FF00BF0837BD466C
:10182C0080BD80B582B000AF78607868FFF7A2FF0A
:10183C00034618460837BD4680BD000080B48BB007
:10184C0000AF7860396000237B6200233B6248E183
:10185C0001227B6A02FA03F3FB613B681B68FA699D
:10186C001340BB61BA69FB699A4240F037813B680F
:10187C005B68A34A93425ED0A14A934275D8A14AB1
:10188C00934258D09F4A93426FD89F4A934252D06A
:10189C009D4A934269D89D4A93424CD09B4A9342AD
:1018AC0063D89B4A934246D0994A93425DD8122BF7
:1018BC002AD8122B59D801A252F823F04319000848
:1018CC001D1900082F190008711900087719000854
:1018DC00771900087719000877190008771900089C
:1018EC00771900087719000877190008771900088C
:1018FC00771900087719000877190008771900087C
:10190C002519000839190008824A934213D02CE09B
:10191C003B68DB683B6229E03B68DB6804333B6275
:10192C0024E03B68DB6808333B621FE03B68DB6804
:10193C000C333B621AE03B689B68002B02D10423FA
:10194C003B6213E03B689B68012B05D108233B628B
:10195C007B68FA691A6109E008233B627B68FA69C3
:10196C005A6103E000233B6200E000BFBB69FF2B20
:10197C0001D87B6801E07B6804337B61BB69FF2B7A
:10198C0002D87B6A9B0002E07B6A083B9B003B61B0
:10199C007B691A680F213B6901FA03F3DB431A4098
:1019AC00396A3B6901FA03F31A437B691A603B6895
:1019BC005B6803F08053002B00F09080564B9B69C2
:1019CC00554A43F001039361534B9B6903F00103A8
:1019DC00BB60BB68514A7B6A9B08023352F82330C8
:1019EC00FB607B6A03F003039B000F2202FA03F3F4
:1019FC00DB43FA681340FB607B68494A93420DD085
:101A0C007B68484A934207D07B68474A934201D18E
:101A1C00022304E0032302E0012300E000237A6A9E
:101A2C0002F0030292009340FA681343FB603B49B7
:101A3C007B6A9B080233FA6841F823203B685B6899
:101A4C0003F48013002B06D0384B9A683749BB69D6
:101A5C0013438B6006E0354B9A68BB69DB43334913
:101A6C0013408B603B685B6803F40013002B06D0BB
:101A7C002E4BDA682D49BB691343CB6006E02B4B28
:101A8C00DA68BB69DB4329491340CB603B685B6870
:101A9C0003F40033002B06D0244B5A682349BB694E
:101AAC0013434B6006E0214B5A68BB69DB431F496B
:101ABC0013404B603B685B6803F48033002B06D00B
:101ACC001A4B1A681949BB6913430B6006E0174B94
:101ADC001A68BB69DB43154913400B607B6A013301
:101AEC007B623B681A687B6A22FA03F3002B7FF453
:101AFC00AFAE00BF00BF2C37BD4680BC704700BFE7
:101B0C0000003210000031100000221000002110E3
:101B1C0000001210000011100010024000000140E3
:101B2C0000080140000C014000100140000401407D
:101B3C0080B485B000AF78600B467B807B689A6878
:101B4C007B881340002B02D00123FB7301E00023A0
:101B5C00FB73FB7B18461437BD4680BC704780B4C2
:101B6C0083B000AF78600B467B8013467B707B782C
:101B7C00002B03D07A887B681A6103E07B881A04F7
:101B8C007B681A6100BF0C37BD4680BC704780B4BF
:101B9C0085B000AF78600B467B807B68DB68FB60B0
:101BAC007A88FB6813401A04FB68D9437B880B4086
:101BBC001A437B681A6100BF1437BD4680BC70475E
:101BCC0080B586B000AF78607B68002B01D1012313
:101BDC006CE27B681B6803F00103002B00F087802C
:101BEC00924B5B6803F00C03042B0CD08F4B5B689F
:101BFC0003F00C03082B12D18C4B5B6803F480337D
:101C0C00B3F5803F0BD1894B1B6803F40033002BD9
:101C1C006CD07B685B68002B68D1012346E27B6843
:101C2C005B68B3F5803F06D1804B1B687F4A43F459
:101C3C00803313602EE07B685B68002B0CD17B4BF0
:101C4C001B687A4A23F480331360784B1B68774AFD
:101C5C0023F4802313601DE07B685B68B3F5A02F31
:101C6C000CD1724B1B68714A43F4802313606F4B89
:101C7C001B686E4A43F4803313600BE06B4B1B689C
:101C8C006A4A23F480331360684B1B68674A23F459
:101C9C00802313607B685B68002B13D0FFF7B6FCC6
:101CAC00386108E0FFF7B2FC02463B69D31A642B9B
:101CBC0001D90323FAE15D4B1B6803F40033002BBD
:101CCC00F0D014E0FFF7A2FC386108E0FFF79EFCAF
:101CDC0002463B69D31A642B01D90323E6E1534B2B
:101CEC001B6803F40033002BF0D100E000BF7B68CD
:101CFC001B6803F00203002B63D04C4B5B6803F0B2
:101D0C000C03002B0BD0494B5B6803F00C03082B26
:101D1C001CD1464B5B6803F48033002B16D1434B2C
:101D2C001B6803F00203002B05D07B681B69012B99
:101D3C0001D00123BAE13D4B1B6823F0F8027B680C
:101D4C005B69DB00394913430B603AE07B681B6924
:101D5C00002B20D0364B01221A60FFF757FC38615C
:101D6C0008E0FFF753FC02463B69D31A022B01D95A
:101D7C0003239BE12D4B1B6803F00203002BF0D0D7
:101D8C002A4B1B6823F0F8027B685B69DB00274950
:101D9C0013430B6015E0264B00221A60FFF736FC4C
:101DAC00386108E0FFF732FC02463B69D31A022B7C
:101DBC0001D903237AE11D4B1B6803F00203002BAE
:101DCC00F0D17B681B6803F00803002B3AD07B68CA
:101DDC009B69002B19D0174B01221A60FFF716FCD8
:101DEC00386108E0FFF712FC02463B69D31A022B5C
:101DFC0001D903235AE10D4B5B6A03F00203002B5C
:101E0C00F0D0012000F09AFA1CE00A4B00221A6074
:101E1C00FFF7FCFB38610FE0FFF7F8FB02463B696C
:101E2C00D31A022B08D9032340E100BF0010024053
:101E3C0000004242800442429E4B5B6A03F0020364
:101E4C00002BE9D17B681B6803F00403002B00F026
:101E5C00A6800023FB75974BDB6903F08053002BA6
:101E6C000DD1944BDB69934A43F08053D361914B72
:101E7C00DB6903F08053BB60BB680123FB758E4BA1
:101E8C001B6803F48073002B18D18B4B1B688A4A98
:101E9C0043F480731360FFF7B9FB386108E0FFF778
:101EAC00B5FB02463B69D31A642B01D90323FDE031
:101EBC00814B1B6803F48073002BF0D07B68DB68CC
:101ECC00012B06D17B4B1B6A7A4A43F00103136248
:101EDC002DE07B68DB68002B0CD1764B1B6A754AB6
:101EEC0023F001031362734B1B6A724A23F0040341
:101EFC0013621CE07B68DB68052B0CD16D4B1B6AF5
:101F0C006C4A43F0040313626A4B1B6A694A43F040
:101F1C00010313620BE0674B1B6A664A23F0010353
:101F2C001362644B1B6A634A23F0040313627B68DD
:101F3C00DB68002B15D0FFF769FB38610AE0FFF76F
:101F4C0065FB02463B69D31A41F28832934201D9B0
:101F5C000323ABE0574B1B6A03F00203002BEED0BC
:101F6C0014E0FFF753FB38610AE0FFF74FFB024622
:101F7C003B69D31A41F28832934201D9032395E08D
:101F8C004C4B1B6A03F00203002BEED1FB7D012BA3
:101F9C0005D1484BDB69474A23F08053D3617B68FA
:101FAC00DB69002B00F08180424B5B6803F00C0373
:101FBC00082B61D07B68DB69022B46D13F4B00229A
:101FCC001A60FFF723FB386108E0FFF71FFB02469E
:101FDC003B69D31A022B01D9032367E0354B1B68ED
:101FEC0003F00073002BF0D17B681B6AB3F5803FC4
:101FFC0008D1304B5B6823F400327B689B682D4919
:10200C0013434B602B4B5B6823F474127B68196A87
:10201C007B685B6A0B43274913434B60274B0122B8
:10202C001A60FFF7F3FA386108E0FFF7EFFA02469F
:10203C003B69D31A022B01D9032337E01D4B1B68D4
:10204C0003F00073002BF0D02FE01C4B00221A6021
:10205C00FFF7DCFA386108E0FFF7D8FA02463B6973
:10206C00D31A022B01D9032320E0124B1B6803F077
:10207C000073002BF0D118E07B68DB69012B01D1D8
:10208C00012313E00B4B5B68FB60FB6803F48032AD
:10209C007B681B6A9A4206D1FB6803F470127B685A
:1020AC005B6A9A4201D0012300E0002318461837DE
:1020BC00BD4680BD001002400070004060004242EE
:1020CC0080B584B000AF786039607B68002B01D19B
:1020DC000123D0E06A4B1B6803F007033A689A426D
:1020EC0010D9674B1B6823F0070265493B68134303
:1020FC000B60634B1B6803F007033A689A4201D0EC
:10210C000123B8E07B681B6803F00203002B20D08E
:10211C007B681B6803F00403002B05D0594B5B68EC
:10212C00584A43F4E06353607B681B6803F0080370
:10213C00002B05D0534B5B68524A43F460535360F9
:10214C00504B5B6823F0F0027B689B684D4913434E
:10215C004B607B681B6803F00103002B40D07B684D
:10216C005B68012B07D1474B1B6803F40033002B32
:10217C0015D101237FE07B685B68022B07D1414BB3
:10218C001B6803F00073002B09D1012373E03D4B56
:10219C001B6803F00203002B01D101236BE0394BC8
:1021AC005B6823F003027B685B68364913434B6022
:1021BC00FFF72CFAF8600AE0FFF728FA0246FB68F2
:1021CC00D31A41F28832934201D9032353E02D4BA9
:1021DC005B6803F00C027B685B689B009A42EBD156
:1021EC00274B1B6803F007033A689A4210D2244B22
:1021FC001B6823F0070222493B6813430B60204BFA
:10220C001B6803F007033A689A4201D0012332E0BD
:10221C007B681B6803F00403002B08D0194B5B6828
:10222C0023F4E0627B68DB68164913434B607B68E0
:10223C001B6803F00803002B09D0124B5B6823F4D6
:10224C0060527B681B69DB000E4913434B6000F046
:10225C0021F802460B4B5B681B0903F00F030A497C
:10226C00CB5C22FA03F3094A1360094B1B6818462E
:10227C00FFF78AF9002318461037BD4680BD00BF12
:10228C000020024000100240AC2B0008800000200F
:10229C008400002080B487B000AF0023FB600023D3
:1022AC00BB6000237B6100237B6000233B611E4BE2
:1022BC005B68FB60FB6803F00C03042B02D0082B5B
:1022CC0003D027E0194B3B6127E0FB689B0C03F024
:1022DC000F03174AD35C7B60FB6803F48033002B3D
:1022EC0010D0114B5B685B0C03F00103114AD35CFB
:1022FC00BB607B680D4A02FB03F2BB68B2FBF3F3D5
:10230C007B6104E07B680C4A02FB03F37B617B6915
:10231C003B6102E0054B3B6100BF3B6918461C3733
:10232C00BD4680BC704700BF0010024000127A000E
:10233C00BC2B0008CC2B000800093D0080B485B0F4
:10234C0000AF78600A4B1B680A4AA2FB03235B0AA6
:10235C007A6802FB03F3FB6000BFFB685A1EFA604D
:10236C00002BF9D100BF00BF1437BD4680BC7047AD
:10237C0080000020D34D621080B582B000AF786031
:10238C007B68002B01D1012341E07B6893F83D3041
:10239C00DBB2002B06D17B68002283F83C207868E6
:1023AC00FEF74CFF7B68022283F83D207B681A689D
:1023BC007B6804331946104600F056FA7B680122FC
:1023CC0083F846207B68012283F83E207B6801223B
:1023DC0083F83F207B68012283F840207B68012230
:1023EC0083F841207B68012283F842207B6801221C
:1023FC0083F843207B68012283F844207B68012208
:10240C0083F845207B68012283F83D200023184681
:10241C000837BD4680BD000080B485B000AF786041
:10242C007B6893F83D30DBB2012B01D0012335E002
:10243C007B68022283F83D207B681B68DA687B6826
:10244C001B6842F00102DA607B681B68164A9342F3
:10245C0009D07B681B68B3F1804F04D07B681B6884
:10246C00124A934211D17B681B689B6803F00703E7
:10247C00FB60FB68062B10D07B681B681A687B68B6
:10248C001B6842F001021A6007E07B681B681A683F
:10249C007B681B6842F001021A600023184614374F
:1024AC00BD4680BC704700BF002C014000040040BA
:1024BC0080B584B000AF78607B681B68DB68FB601C
:1024CC007B681B681B69BB60BB6803F00203002BB5
:1024DC0020D0FB6803F00203002B1BD07B681B6829
:1024EC006FF002021A617B6801221A777B681B6805
:1024FC009B6903F00303002B03D0786800F098F974
:10250C0005E0786800F08BF9786800F09AF97B6840
:10251C0000221A77BB6803F00403002B20D0FB6861
:10252C0003F00403002B1BD07B681B686FF00402C4
:10253C001A617B6802221A777B681B689B6903F41B
:10254C004073002B03D0786800F072F905E07868CE
:10255C0000F065F9786800F074F97B6800221A774E
:10256C00BB6803F00803002B20D0FB6803F00803C2
:10257C00002B1BD07B681B686FF008021A617B680C
:10258C0004221A777B681B68DB6903F00303002BBA
:10259C0003D0786800F04CF905E0786800F03FF95A
:1025AC00786800F04EF97B6800221A77BB6803F05C
:1025BC001003002B20D0FB6803F01003002B1BD062
:1025CC007B681B686FF010021A617B6808221A770F
:1025DC007B681B68DB6903F44073002B03D07868BD
:1025EC0000F026F905E0786800F019F9786800F039
:1025FC0028F97B6800221A77BB6803F00103002BD3
:10260C000CD0FB6803F00103002B07D07B681B6820
:10261C006FF001021A617868FEF77CFDBB6803F06D
:10262C008003002B0CD0FB6803F08003002B07D039
:10263C007B681B686FF080021A61786800F06FFA93
:10264C00BB6803F04003002B0CD0FB6803F0400385
:10265C00002B07D07B681B686FF040021A6178680A
:10266C0000F0F8F8BB6803F02003002B0CD0FB68DB
:10267C0003F02003002B07D07B681B686FF020024F
:10268C001A61786800F042FA00BF1037BD4680BD71
:10269C0080B584B000AF786039600023FB737B6831
:1026AC0093F83C30012B01D10223B4E07B6801226A
:1026BC0083F83C207B68022283F83D207B681B68F2
:1026CC009B68BB60BB6823F07703BB60BB6823F4DB
:1026DC007F43BB607B681B68BA689A603B681B6869
:1026EC00B3F5005F3ED0B3F5005F00F28780B3F521
:1026FC00805F00F08680B3F5805F7FD8702B1AD096
:10270C00702B7BD8602B50D0602B77D8502B3CD0C3
:10271C00502B73D8402B58D0402B6FD8302B64D013
:10272C00302B6BD8202B60D0202B67D8002B5CD0A3
:10273C00102B5AD062E07B6818683B6899683B683C
:10274C005A683B68DB6800F06AF97B681B689B6819
:10275C00BB60BB6843F07703BB607B681B68BA68DF
:10276C009A604FE07B6818683B6899683B685A68C8
:10277C003B68DB6800F053F97B681B689A687B68E0
:10278C001B6842F480429A603CE07B6818683B68A6
:10279C0059683B68DB681A4600F0CAF87B681B680E
:1027AC005021184600F021F92CE07B6818683B6832
:1027BC0059683B68DB681A4600F0E8F87B681B68D0
:1027CC006021184600F011F91CE07B6818683B6822
:1027DC0059683B68DB681A4600F0AAF87B681B68EE
:1027EC004021184600F001F90CE07B681A683B6840
:1027FC001B681946104600F0F8F803E00123FB7340
:10280C0000E000BF7B68012283F83D207B6800223A
:10281C0083F83C20FB7B18461037BD4680BD80B446
:10282C0083B000AF786000BF0C37BD4680BC7047EA
:10283C0080B483B000AF786000BF0C37BD4680BC5D
:10284C00704780B483B000AF786000BF0C37BD46D2
:10285C0080BC704780B483B000AF786000BF0C3789
:10286C00BD4680BC7047000080B485B000AF786076
:10287C0039607B681B68FB607B682B4A934207D0EE
:10288C007B68B3F1804F03D07B68284A934208D110
:10289C00FB6823F07003FB603B685B68FA681343CA
:1028AC00FB607B68204A934207D07B68B3F1804F72
:1028BC0003D07B681D4A934208D1FB6823F4407314
:1028CC00FB603B68DB68FA681343FB60FB6823F032
:1028DC0080023B685B691343FB607B68FA681A6093
:1028EC003B689A687B68DA623B681A687B689A6214
:1028FC007B680D4A934203D13B681A697B681A6363
:10290C007B6801225A617B681B6903F00103002B71
:10291C0005D07B681B6923F001027B681A6100BF3C
:10292C001437BD4680BC7047002C014000040040A9
:10293C0080B487B000AFF860B9607A60FB681B6A3E
:10294C007B61FB681B6A23F00102FB681A62FB685F
:10295C009B693B613B6923F0F0033B617B681B0186
:10296C003A6913433B617B6923F00A037B617A6903
:10297C00BB6813437B61FB683A699A61FB687A69AF
:10298C001A6200BF1C37BD4680BC704780B487B04C
:10299C0000AFF860B9607A60FB681B6A7B61FB680A
:1029AC001B6A23F01002FB681A62FB689B693B618F
:1029BC003B6923F470433B617B681B033A69134307
:1029CC003B617B6923F0A0037B61BB681B017A69C7
:1029DC0013437B61FB683A699A61FB687A691A62F6
:1029EC0000BF1C37BD4680BC704780B485B000AFBB
:1029FC00786039607B689B68FB60FB6823F0700330
:102A0C00FB603A68FB68134343F00703FB607B6889
:102A1C00FA689A6000BF1437BD4680BC704780B41A
:102A2C0087B000AFF860B9607A603B60FB689B6868
:102A3C007B617B6923F47F437B613B681A027B6873
:102A4C001A43BB6813437A6913437B61FB687A6949
:102A5C009A6000BF1C37BD4680BC704780B485B0FF
:102A6C0000AF786039607B6893F83C30012B01D162
:102A7C00022341E07B68012283F83C207B68022220
:102A8C0083F83D207B681B685B68FB607B681B6878
:102A9C009B68BB60FB6823F07003FB603B681B68A2
:102AAC00FA681343FB607B681B68FA685A607B68A2
:102ABC001B68144A934209D07B681B68B3F1804FA2
:102ACC0004D07B681B68104A93420CD1BB6823F07E
:102ADC008003BB603B685B68BA681343BB607B6870
:102AEC001B68BA689A607B68012283F83D207B687A
:102AFC00002283F83C20002318461437BD4680BCC6
:102B0C00704700BF002C01400004004080B483B02B
:102B1C0000AF786000BF0C37BD4680BC704780B4F6
:102B2C0083B000AF786000BF0C37BD4680BC7047E7
:102B3C0070B500260C4D0D4C641BA410A64209D197
:102B4C0000F022F800260A4D0A4C641BA410A64281
:102B5C0005D170BD55F8043B98470136EEE755F8A2
:102B6C00043B98470136F2E7D02B0008D02B000825
:102B7C00D02B0008D42B000803460244934200D10A
:102B8C00704703F8011BF9E7F8B500BFF8BC08BCA7
:102B9C009E467047F8B500BFF8BC08BC9E4670470F
:102BAC0000000000000000000102030406070809F1
:102BBC0002030405060708090A0B0C0D0E0F101072
:042BCC000102000002
:042BD00031010008C7
:042BD4000D010008E7
:102BD80001000000000000000000000000000000EC
:102BE80001000000000000000000000000000000DC
:102BF80001000000000000000000000000000000CC
:102C080001000000000000000000000000000000BB
:102C1800C8000000010000000100000005000000DD
:102C28000300000002000000000000000500000092
:102C38000000000003000000050000000300000081
:102C4800F4010000407924301912027800100000C5
:0C2C580000127A001000000001000000D3
:040000050800151DBD
:00000001FF
